:04000000B1EF02F06A
:08000800046ED8CF05F0E0CF33
:1000100006F00001E9CF0CF0EACF07F0E1CF08F0DD
:10002000E2CF09F0D9CF0AF0DACF0BF0F3CF12F01C
:10003000F4CF13F0FACF14F0F5CF15F0F6CF16F099
:10004000F7CF17F000C00EF001C00FF002C010F0A3
:1000500003C011F0F2AA30EF00F0F2B473EF00F039
:100060009DA036EF00F09EB086EF00F0F2A83CEFC6
:1000700000F0F2B28FEF00F0F0A642EF00F0F0B027
:10008000A7EF00F00EC000F00FC001F010C002F0AA
:1000900011C003F00CC0E9FF07C0EAFF078E08C0DB
:1000A000E1FF09C0E2FF0AC0D9FF0BC0DAFF12C0AE
:1000B000F3FF13C0F4FF14C0FAFF15C0F5FF16C01C
:1000C000F6FF17C0F7FF045006C0E0FF05C0D8FFD9
:1000D0001000F76AE20FF66E000EF7220900F550E5
:1000E0001200280C01060B0ED76EDC0ED66E1AC05D
:1000F0001EF019C01DF01CC020F01BC01FF01A6AB2
:10010000196A1C6A1B6AF29442EF00F0CF6ACE6A49
:100110002D922D942C6A2B6A9E9042EF00F0192AA2
:10012000D8B41A2A2DB205D0CF6ACE6A2D822D946A
:100130000BD02DA209D0CE502B6ECFCF2CF02D920C
:100140002DB402D02C6A2B6AF29242EF00F01B2AE7
:10015000D8B41C2A2DB205D0CF6ACE6A2D822D8448
:100160000BD02DA209D0CE502B6ECFCF2CF02D92DC
:100170002DA202D02C6A2B6AF09042EF00F07C5640
:10018000323A25344C5500007C46323A25324C55E3
:10019000000050484153453A25346C550000EA6A46
:1001A0003A0EE96EEF500EE0010E016E006A002E6D
:1001B000FED7012EFBD74A0E006E002EFED700D0D0
:1001C000EF2EF2D712004138F00B006E0F0E8C1498
:1001D00000108C6E00008C8000D08C901200835038
:1001E000006E00380F0B016E12000F0E9514F0090F
:1001F000956E8C8400008C800000F1DF01C041F01E
:100200008C9000008C800000EADF01C040F08C90F0
:100210000F0E9514956E4138006EF00E00160050CA
:100220004010016E19EF01F09590959295948C9283
:10023000DCD701C040F001BEFBD78C923EB08C826F
:1002400000008C9400008C903F38406E0F0E4016DA
:1002500040C041F0B8DF3F500F0B406E416EB3DF3E
:1002600012000F0E9514956E9590959295948C9220
:100270008C948C900F0E3A6E92DF010E2E6E2E50E3
:10028000030808E3030E416E9EDF050E3A6E87DF1A
:100290002E2AF5D7020E416E96DF050E3A6E7FDFED
:1002A0002E6A2E50030809E3036A2E5012DF2F6EC8
:1002B0003E6A3F6EB9DF2E2AF4D708EF03F03B2CDD
:1002C00001D003D0400E3C6E01D03C6A010E3A5C76
:1002D0003C263C5080093D6E3E6A3F6EA5DF120011
:1002E0003950070A07E00B0A0AE0060A10E0020A82
:1002F00014E018D0010E3A6E3B6EE1DF19D03E6A71
:10030000010E3F6E91DF020E3A6E49DF11D0010EF1
:100310003A6E020E3B6ED3DF0BD03E6A100E3F6E7C
:1003200083DF06D0010E3E6E39C03FF07DDF00D086
:1003300012008E0E006E2FC001F02EC002F0036A74
:10034000015209E102C001F0026A080E005E01528A
:1003500002E1006A08D0D89001BE04D0023601360E
:100360000006F9D7019E12002E50D8B471D0006E4D
:100370003250D8B46DD0002604E3810E002668E226
:1003800004D07F0E005E64E363E02FC036F033508C
:10039000361A2F8E338E31503502F4CF38F030506C
:1003A0003402F4CF03F0F3CF37F03502F3503826A0
:1003B000F4503722000E032231503402F350382615
:1003C000F4503722000E026A032202222F50350217
:1003D000F3503726F4500322000E02222F5034022D
:1003E000F3500326F4500222000E016A012231501C
:1003F0003302F3503726F4500322000E022201226A
:1004000030503302F3500326F4500222000E012232
:100410002F503302F3500226F4500122002A01BE6D
:1004200005D037360336023601360006000E37AEE9
:100430000AD0032A02220122015005E1025003E101
:10044000035001E1002A36BE018E36AE019E04D073
:10045000006A016A026A036A12008E0E006E2E5054
:10046000005E2FC002F030C001F0028E005209E0A1
:10047000D890025202E1015204E002320132002E11
:10048000F7D72FAE05D0011E021E012AD8B4022ACA
:100490001200EACF38F0E9CF37F03138F009336E87
:1004A0003326E20F346E320F366E31500F0B342686
:1004B00034263626E90F356E3526352630380F0BB3
:1004C0003526362635363636361E363630500F0B44
:1004D00036263336070E326E0A0E35063626FDE313
:1004E00034063526FDE333063426FDE33206332693
:1004F000FDE3EA6A320EE96E070E3714379CE926EF
:10050000360EE95CD8B4378CEF50006E08E137BC8A
:1005100006D037B813D037B602D0200E03D03786B6
:100520003798300E0026EACF31F0E9CF30F000C026
:1005300039F0D6DE31C0EAFF30C0E9FFEE5037AC0B
:10054000DFD712000900F6CF31F0F7CF32F0F5CF48
:1005500039F0C6DE31C0F6FF32C0F7FF302EF2D7D9
:100560001200F86AD09E078EEA6AE96AC180C182E9
:10057000C184C196C180C182C184C196C190C1921B
:10058000C184C196C19CC28CC28EC18EC280830EB2
:10059000D56E0B0ED76EDC0ED66E850ECD6ECF6A85
:1005A000CE6A100EB16E3C0EB36EB00EB26EF28A11
:1005B0009D80F288F086C00EF212000E016EC250CD
:1005C000C70B0110C26EC284C2B4FED7C350080E5E
:1005D000016EC250C70B0110C26EC284C2B4FED7F6
:1005E000C35096928D9296948D9496908D90C284DD
:1005F000C2B4FED7C3CF23F0C4CF24F0C284C2B4A8
:10060000FED7C3CF25F0C4CF26F0000E956E29D6B5
:10061000010E3A6E3B6E53DE300E396E61DE000E17
:10062000016EC250C70B0110C26E640E3A6EB7DD88
:10063000C284C2B4FED7C350080E016EC250C70BAD
:100640000110C26E640E3A6EAADDC284C2B4FED737
:10065000C350000E016EC250C70B0110C26E640E73
:100660003A6E9DDDC284C2B4FED7C3CF23F0C4CF9F
:1006700024F0080E016EC250C70B0110C26E640E4A
:100680003A6E8DDDC284C2B4FED7C3CF25F0C4CF8D
:1006900026F024C02FF023C02EF04BDE03C031F033
:1006A00002C030F001C02FF000C02EF0110E356EE8
:1006B000360E346E1C0E336E7D0E326E55DE03C068
:1006C00031F002C030F001C02FF000C02EF0C5DEC6
:1006D00002C028F001C027F026C02FF025C02EF060
:1006E00028DE03C031F002C030F001C02FF000C09E
:1006F0002EF0110E356E360E346E1C0E336E7D0EDE
:10070000326E32DE03C031F002C030F001C02FF093
:1007100000C02EF0A2DE02C02AF001C029F0010EB6
:100720003A6E3B6ECCDD560E396EDADD310E396E27
:10073000D7DD3A0E396ED4DD010EE96E28C031F0F6
:1007400027C030F0A6DE090E3A6E010E3B6EB7DD13
:100750007E0EF66E010EF76E040E306EF3DE010EA5
:10076000E96E2AC031F029C030F093DE010E3A6EF6
:10077000020E3B6EA4DD460E396EB2DD310E396ECF
:10078000AFDD3A0E396EACDD030EE96E1EC031F0FE
:100790001DC030F07EDE090E3A6E020E3B6E8FDD1C
:1007A000880EF66E010EF76E040E306ECBDE030E71
:1007B000E96E20C031F01FC030F06BDE110E3A6ED2
:1007C000010E3B6E7CDD2CC02FF02BC02EF0B1DD76
:1007D00003C031F002C030F001C02FF000C02EF095
:1007E000BC0E356E740E346E130E336E790E326E8F
:1007F000BBDD03C031F002C030F001C02FF000C0FB
:100800002EF02BDE02C02FF001C02EF0920EF66EFD
:10081000010EF76E060E306E95DE010EE96E2FC0EA
:1008200031F02EC030F035DE1F501D5C2E6E205092
:100830001E582F6E2E5202E12F5203E096908D80AB
:1008400002D096908D902950275C2E6E2A50285801
:100850002F6E2E5202E12F5203E096928D8202D02B
:0808600096928D92F6D603007A
:020000040030CA
:0E00000000220C0E000181000FC00FE00F4027
:00000001FF
;PIC18F452
;CRC=C05D  CREATED="16-Aug-12 02:15"
